:10000000C1C00000DBC00000D9C00000D7C00000A4
:10001000D5C00000D3C00000D1C00000CFC0000098
:10002000CDC00000CBC00000C9C00000D3C5000097
:1000300078C60000C3C00000C1C000001DC10000A0
:10004000BDC00000BBC00000B9C00000B7C00000C8
:10005000B5C00000B3C00000B1C0000054C2000031
:10006000ADC00000ABC00000A9C00000A7C00000E8
:10007000A5C00000240341007200640075006900FF
:100080006E006F0020004D006500670061002000D9
:1000900032003500360030000000320341007200AB
:1000A0006400750069006E006F0020002800770072
:1000B000770077002E00610072006400750069000F
:1000C0006E006F002E00630063002900000004032F
:1000D000090409025F00030100C032080B0002029C
:1000E00000000009040000010202010005240010C4
:1000F0000104240206052406000107058103080007
:10010000FF09040100020A000000070503021000B5
:100110000507058202100005090402000103010120
:100120000009211101000122400007058403080095
:100130000512011001000000084123100001000118
:1001400002DC0105010906A101050719E029E715EF
:100150000025017501950881029501750881010549
:1001600008190129059505750191029501750391FD
:1001700001150026FF000507190029FF95067508DF
:100180008100C00011241FBECFEFD2E0DEBFCDBF83
:1001900011E0A0E0B1E0E2EEF7E102C005900D92BF
:1001A000AC32B107D9F722E0ACE2B1E001C01D9258
:1001B000A830B207E1F7A9D00C94EF0B21CFFC01D6
:1001C0008FB7F894608371836283738364837583CC
:1001D000640F751F66837783408751871286138665
:1001E0008FBF08952FB7F894FC01828593852FBFA8
:1001F0000895FC01A081B1816C9380819181019669
:1002000080839183268137818217930721F484812B
:100210009581808391832FB7F89482859385019689
:10022000828793872FBF0895FC01A281B3818D91AE
:10023000A283B38326813781A217B30721F42481D7
:100240003581228333839FB7F894228533852150EB
:100250003109228733879FBF089582E08093800011
:1002600093E09093810029EF30E030938900209350
:10027000880080936F0008951F921FB61F9211246B
:100280008F9380916201811519F0815080936201F2
:1002900080916301811519F08150809363018F91E2
:1002A0001F901FBE1F90189584B7877F84BF0FB61D
:1002B000F894A89580916000886180936000109206
:1002C00060000FBE80E890E00FB6F8948093610064
:1002D000909361000FBE88E09093CD008093CC0096
:1002E00086E08093CA001092C80088E18093C9001C
:1002F000539A5A9AB2DF8AB180638AB98BB180630C
:100300008BB959D45F9A579A0895CEDF40E450E0F4
:1003100060EB71E080EF91E052DF40E450E064E692
:1003200071E084EA91E04BDF40E250E06EE271E080
:100330008EE491E044DF8BB18F7D80618BB978943E
:10034000D5E080EF91E04EDF2091F8013091F90186
:100350008217930759F080E191E023D797FD06C0FB
:10036000D0936201682F80EF91E043DF84EA91E04F
:1003700039DF009729F58091C80085FF0EC080EF16
:1003800091E030DF892B49F080EF91E04DDF9091D3
:10039000C80095FFFCCF8093CE008091630181154A
:1003A00071F15D9880916201811559F15C9880E14D
:1003B00091E0E2D680E091E00E94F00A51D6C1CFF0
:1003C000209111012F702093E9002091E80020FF77
:1003D000D2CF8031910508F08FE0C82FE091A601BF
:1003E000F091A701608180E191E076D68111C3CFC1
:1003F000C15084EA91E018DFC111F0CFBCCF5D9A03
:10040000D1CF5C9AD4CFCF93DF930F92CDB7DEB725
:1004100080E191E03DD6898380E091E00E94D80A96
:10042000811108C08BB18F7D80618BB90F90DF91F6
:10043000CF91089589818115C9F38091E20084608C
:100440008093E200F3CF80E191E0D7D680E091E0A5
:1004500073C780910E0190910F01009729F00197C9
:1004600080930E0190930F010895EF92FF920F93E6
:100470001F93CF93DF9300D000D0CDB7DEB72B838F
:100480003C8309831A838EE491E0ACDE009779F017
:100490008D30910510F08CE090E096958795182F9F
:1004A000EB80FC80F2E0EF0EF11C111111C088E02E
:1004B000E981FA818083118280E00F900F900F9084
:1004C0000F90DF91CF911F910F91FF90EF900895C2
:1004D0001150E0915001F09151018081EB81FC813C
:1004E00080838EE491E0A0DEE0915001F091510113
:1004F0008081F70181937F018EE491E095DED5CF75
:100500008BB18BB908951F920F920FB60F921124E1
:100510002F933F934F935F936F937F938F939F930B
:10052000AF93BF93CF93EF93FF93C091CE00809191
:100530002D01813069F1823089F1811117C081E08C
:10054000CE3F49F18EB3843089F484EA91E04ADEEB
:100550002091AC013091AD018217930739F085E00D
:10056000809363016C2F84EA91E043DEFF91EF9169
:10057000CF91BF91AF919F918F917F916F915F913B
:100580004F913F912F910F900FBE0F901F90189594
:10059000C0932C0182E080932D01E8CF8EE491E09E
:1005A00021DE209156013091570182179307F1F215
:1005B00085E0809363016C2F8EE491E01ADE8091D8
:1005C0002C01815080932C018111D0CF10922D01EC
:1005D000CDCF0F931F93CF938C01FC01818DC0E38E
:1005E000813039F0C1E0823009F0C0E0C295CC0F13
:1005F000C07EF801808D823009F4C860F801828DD8
:10060000873009F445C0883009F444C0863009F4C5
:10061000C2605B9A1092C9001092C8001092CA0082
:10062000F80124893589468957892115F1EE3F075C
:100630004105510589F1C901DA01B695A79597954C
:100640008795BC01CD0160587B47814E9F4F0E942A
:10065000B00B215031093093CD002093CC00C093D2
:10066000CA0081E0F8014489558966897789411576
:10067000514E6105710509F480E0880F8093C80030
:1006800088E98093C9005B98CF911F910F910895DD
:10069000C460BFCFC660BDCF20E130E0DCCFFC013D
:1006A000808980FF05C05F988BB18F7C8BB90895DE
:1006B0005F9A8BB18063FACF292F30E02330310568
:1006C000C9F070F421303105D9F12230310571F4CF
:1006D0008FE590E022ED30E0FA0120833183089528
:1006E00021323105E9F02232310511F180E090E04C
:1006F00020E0F2CF282F30E0813061F02230310548
:1007000061F0EEECF0E02115310581F7849190E085
:100710009F01E2CFEAE9F0E0F9CFE4E7F0E0F6CFBD
:100720006230710519F789E090E021E231E0D4CF21
:1007300062307105D9F680E490E023E431E0CCCF5B
:1007400082E190E021E331E0C7CFAF92BF92CF9238
:10075000DF92EF92FF921F93CF93DF937C01EB0127
:100760006A01C1D1182F811122C0C114D10439F0FE
:10077000F60180819181C81BD90BE80EF91EA12CCE
:10078000B12C2097A1F08091E80085FD20C08091D8
:10079000E8008E778093E800C114D10499F0F60147
:1007A000808191818A0D9B1D8083918315E0812F2B
:1007B000DF91CF911F91FF90EF90DF90CF90BF908E
:1007C000AF90089590D18115F1F2182FF0CFF70175
:1007D00081917F018093F1002197FFEFAF1ABF0A4B
:1007E000D0CFFC01809105029091060286179707F1
:1007F00020F06115710561F0CB0140E0009771F4C4
:1008000041110CC08091E80082FF33C080E0089560
:100810008091E8008E778093E800EECF2EB321150B
:1008200099F1253099F12091E80023FD2BC020910A
:10083000E80022FDE7CF2091E80020FFDFCF2091E4
:10084000F20030E0009719F02830310558F041E00F
:100850002830310509F040E02091E8002E77209300
:10086000E800CCCF41914093F10001972F5F3F4FBB
:10087000E9CF8EB3811541F0853041F08091E800D9
:1008800083FFC0CF81E0089582E0089583E008955A
:10089000FC01CB01009739F58091E8008B778093BC
:1008A000E8008091E80080FF23C080E008952530B3
:1008B00011F483E008952091E80023FD1FC02091EA
:1008C000E80022FF10C02091F200211529F02091AC
:1008D000F10021930197B9F72091E8002B7720933D
:1008E000E8000097F1F22EB32111E1CF82E00895E4
:1008F0008EB38115D9F38530A1F6DBCF81E0089561
:10090000FC0180910502909106028617970720F05E
:100910006115710561F0CB0140E0009771F4411160
:100920000CC08091E80082FF34C080E0089580917F
:10093000E8008E778093E800EECF2EB32115A1F169
:100940002530A1F12091E80023FD2CC02091E80082
:1009500022FDE7CF2091E80020FFDFCF2091F200B9
:1009600030E0009719F02830310558F041E0283088
:10097000310509F040E02091E8002E772093E8004F
:10098000CCCF44914093F100319601972F5F3F4FB8
:10099000E8CF8EB3811541F0853041F08091E800B9
:1009A00083FFBFCF81E0089582E0089583E008953A
:1009B000982F953028F08F708093E90081E008959A
:1009C0009093E900242F762F50E0981731F0709122
:1009D000EC002091ED005091F00021FD02C09F5FDE
:1009E000E8CF3091EB003E7F3093EB003091ED008B
:1009F0003D7F3093ED003091EB0031603093EB00A0
:100A00007093EC002093ED005093F0002091EE00E5
:100A100027FDE5CF80E008951F93CF93DF9300D0AB
:100A20000F92CDB7DEB769838A839B8310E0B981CB
:100A30001B1302C081E011C0AA81BB819C9191115E
:100A400007C01F5FEA81FB813596EA83FB83EFCF06
:100A5000892F8F70853040F080E00F900F900F90BD
:100A6000DF91CF911F910895AA81BB811196ED91DD
:100A7000FD916D912C9156E0223008F452E028E06F
:100A800030E040E02E173F0768F04295407F452B4D
:100A90006295660F660F607C97FD616089DF81114A
:100AA000D0CFDACF4F5F220F331FECCF8091FF0101
:100AB00087FF11C08091E80082FF06C08091E800A6
:100AC0008B778093E80008958EB38111F3CF08955A
:100AD0008EB38115E1F38091E80080FFF9CF80911A
:100AE000E8008E77EECF2091E4003091E50095E6A6
:100AF000A9012091EC00822F817020FF06C0809117
:100B0000E80080FF06C080E008952091E80022FD03
:100B100019C08EB3811589F0853089F08091EB0082
:100B200085FD0FC02091E4003091E5004217530786
:100B300001F39150E9F684E0089582E0089583E09E
:100B4000089581E0089540D042D08091D8008F77F9
:100B50008093D8008091D80080688093D8008091DD
:100B6000D8008F7D8093D80084E089BD86E089BD60
:100B700009B400FEFDCF1EBA1092FE011092FC01D6
:100B80001092FD0142E060E080E012DF8091E10020
:100B90008E7F8093E1008091E20081608093E2008B
:100BA0008091E20088608093E2008091E0008E7F77
:100BB0008093E0000895E3E6F0E080818E7F8083FB
:100BC00081E080930702BFCF1092E2000895109257
:100BD000E10008951F920F920FB60F9211242F93E8
:100BE0003F934F935F936F937F938F939F93AF93B5
:100BF000BF93EF93FF938091E10082FF0AC0809141
:100C0000E20082FF06C08091E1008B7F8093E100CB
:100C100020DC8091E10080FF16C08091E20080FF1F
:100C200012C08091E2008E7F8093E2008091E2000A
:100C300080618093E2008091D80080628093D80028
:100C400019BC1EBA0CD28091E10084FF27C08091AC
:100C5000E20084FF23C084E089BD86E089BD09B439
:100C600000FEFDCF8091D8008F7D8093D8008091C9
:100C7000E1008F7E8093E1008091E2008F7E80937F
:100C8000E2008091E20081608093E2008091FE01A9
:100C9000811509F43EC084E08EBBE1D18091E10072
:100CA00083FF26C08091E20083FF22C08091E10093
:100CB000877F8093E10082E08EBB1092FE018091DD
:100CC000E1008E7F8093E1008091E2008E7F80932F
:100CD000E2008091E20080618093E20042E060E007
:100CE00080E066DE8091F00088608093F000B7D1EC
:100CF000FF91EF91BF91AF919F918F917F916F91F4
:100D00005F914F913F912F910F900FBE0F901F90C9
:100D100018958091E30087FF02C083E0BDCF81E09A
:100D2000BBCF1F920F920FB60F921124EF92FF923A
:100D30000F931F932F933F934F935F936F937F93E3
:100D40008F939F93AF93BF93CF93EF93FF9309EE4E
:100D500010E0F8018081C091EC008F70C0FBCC27BF
:100D6000C7F9C82B1082E0EF8081877F8083789459
:100D70001FD0F8011082E0EF808188608083CF70FF
:100D8000E9EEC083FF91EF91CF91BF91AF919F9119
:100D90008F917F916F915F914F913F912F911F9113
:100DA0000F91FF90EF900F900FBE0F901F9018952E
:100DB0001F93CF93DF93CDB7DEB7AA970FB6F89402
:100DC000DEBF0FBECDBF8FEF91E0FC0101962091F9
:100DD000F100208322E087309207B9F734DB80915D
:100DE000E80083FF10C08091FF01909100029530D0
:100DF00009F4D4C000F5292F2D7F213009F487C0D4
:100E0000911509F45CC08091E80083FF0AC08091CD
:100E1000E800877F8093E8008091EB0080628093F8
:100E2000EB00AA960FB6F894DEBF0FBECDBFDF91E0
:100E3000CF911F910895983009F4E7C0993009F4D3
:100E4000F1C0963001F780588230E8F680910102B7
:100E5000909102028C3D53E0950709F0C1C083E0F8
:100E60008A838AE289834FB7F894DE01139620E0E3
:100E70003EE051E2E32FF0E050935700849120FFD1
:100E800003C082958F703F5F8F708A3008F4A6C0D0
:100E9000895C8D931D922F5F243161F74FBF809144
:100EA000E800877F8093E8006AE270E0CE01019657
:100EB00098DC8091E8008B778093E800A4CF80389D
:100EC00099F0823809F09FCF809103028F708530AE
:100ED00008F099CF8093E9008091EB0085FB88278B
:100EE00080F91092E90006C08091FC01880F909172
:100EF000FD01892B9091E800977F9093E800809303
:100F0000F1001092F1008091E8008E7719C08111F4
:100F10000BC080910102813009F075CF933009F048
:100F200080E08093FC0107C0823009F06CCF809193
:100F30000102811549F01092E9008091E800877F55
:100F40008093E800B3DD5FCF809103028F702FEFB5
:100F5000280F243008F057CF8093E9002091EB0050
:100F600020FFE9CF933031F48091EB0080628093D1
:100F7000EB00E1CF9091EB0090619093EB0021E0CA
:100F800030E0A90101C0440F8A95EAF74093EA00D6
:100F90001092EA008091EB008860E9CF811133CF95
:100FA000109101021F778091E3008078812B80935C
:100FB000E3008091E800877F8093E80077DD8091EF
:100FC000E80080FFFCCF8091E30080688093E3001D
:100FD00083E0111101C082E08EBB15CF805D59CF37
:100FE0006091030270910402AE014F5F5F4F64DBBA
:100FF000BC01892B09F407CF9091E800977F90936B
:10100000E80089819A817CDC54CF803809F0FBCEDE
:101010008091E800877F8093E8008091FE018093B3
:10102000F10071CF8111EFCE90910102923008F062
:10103000EACE8091E800877F8093E8009093FE01DC
:1010400035DD8091FE01811521F084E08EBBDBD976
:10105000DACE8091E30087FDF8CF81E0F7CF0895E5
:10106000CF938EB3811591F08091E900C091EC008F
:101070008F70C0FBCC27C7F9C82B1092E900809174
:10108000E80083FD95DECF70C093E900CF9108950D
:10109000CF93DF93EC01FC0170968BE0DF011D9292
:1010A0008A95E9F782E08C83898783E08E8761E007
:1010B000CE010196B1DC811561F061E0CE010696AA
:1010C000ABDC811531F061E0CE010B96DF91CF9161
:1010D000A3CCDF91CF910895CF93C62F2EB32430A8
:1010E000F9F4FC014489558966897789452B462B9B
:1010F000472BB1F081818F708093E9008091E800E7
:1011000085FF05C0C093F10080E0CF9108958091E4
:10111000E8008E778093E800E6DC811599F3F5CF3F
:1011200082E0F3CF2EB3243029F5FC0144895589A0
:1011300066897789452B462B472BE1F081818F709B
:101140008093E9008091F200811102C080E008954F
:101150009091E8008091E8008E778093E80095FDFB
:10116000F5CFC1DC811107C09091E8009E77909384
:10117000E800089582E008952EB3243089F4FC013C
:101180004489558966897789452B462B472B41F041
:1011900021812F702093E9002091E80020FDC2CF2B
:1011A00008952EB3243019F08FEF9FEF0895FC01BE
:1011B0004489558966897789452B462B472BA1F3AE
:1011C00086818F708093E9008091E80082FFECCFE8
:1011D0008091F200811569F08091F10090E02091FA
:1011E000F200211105C02091E8002B772093E80040
:1011F00008958FEF9FEFF3CF0895CF93DF93EC0126
:101200008091E80083FF13C02881809103029091B0
:1012100004022817190659F480910002823209F459
:1012200076C040F4803209F441C08132A9F0DF91E8
:10123000CF9108958332D9F78091FF018132B9F7B8
:101240008091E800877F8093E80030DC60910102A4
:10125000CE01DF91CF91D0CF8091FF01813A39F754
:101260008091E800877F8093E8008091E80080FF0C
:10127000FCCF8C899D89AE89BF898093F1009093C2
:10128000F100A093F100B093F100888D8093F100FC
:10129000898D8093F1008A8D8093F1008091E80020
:1012A0008E778093E800DF91CF9100CC8091FF0191
:1012B000813209F0BCCF8091E800877F8093E800FD
:1012C0008091E80082FF1FC03091F1002091F10071
:1012D0009091F1008091F1003C8B2D8B9E8B8F8B38
:1012E0008091F100888F8091F100898F8091F100C9
:1012F0008A8F8091E8008B778093E800D7DBCE015E
:10130000DF91CF9166C98EB38111DACF90CF8091F2
:10131000FF01813209F08BCF8091E800877F8093B5
:10132000E800C4DB8091010290910202888B998BC6
:10133000CE01DF91CF91B3C9AF92BF92CF92DF922E
:10134000EF92FF920F931F93CF93DF9300D000D0C3
:1013500000D00F92CDB7DEB77C012DB73EB72E83FC
:101360003F838091E80083FF17C0F70120818091BF
:101370000302909104022817190671F4809100026B
:10138000893009F489C000F5823009F4FBC083304C
:1013900009F4C5C0813081F12E813F810FB6F894E8
:1013A0003EBF0FBE2DBF27960FB6F894DEBF0FBE0F
:1013B000CDBFDF91CF911F910F91FF90EF90DF9004
:1013C000CF90BF90AF9008958A3009F4C1C08B30A0
:1013D00019F78091FF018132F9F68091E800877F4B
:1013E0008093E80063DB9091010281E0911101C0DC
:1013F00080E0F7018187D0CF8091FF01813A61F6CB
:101400002DB73EB72C833D8319821A828091010249
:10141000109102028B838085482F50E0281B3109F0
:101420000FB6F8943EBF0FBE2DBF8DB79EB7019685
:101430006C0160E070E0CCD14FEF410F8E010F5F87
:101440001F4F9601BE016D5F7F4FC7010ED8F70198
:1014500086819781009721F0408550E0B601AFD199
:101460001092E9008091E800877F8093E8008B81EB
:1014700081118093F10069817A81C601B2D980918E
:10148000E8008B778093E8002C813D810FB6F894BB
:101490003EBF0FBE2DBF80CF8091FF01813209F08A
:1014A0007BCF8DB79EB78C839D83009105021091F1
:1014B0000602B0900102A0900202EDB7FEB7E01B59
:1014C000F10B0FB6F894FEBF0FBEEDBF2DB73EB7C0
:1014D0002F5F3F4F69018091E800877F8093E8008C
:1014E000B801C901D5D98091E8008E778093E800D2
:1014F00021E030E0B11001C020E0021B130B2C0DE5
:101500003D1D4FEF4A0D6B2DC7010E9480028C815B
:101510009D810FB6F8949EBF0FBE8DBF3DCF8091C9
:10152000FF01813A09F038CF8091E800877F8093EE
:10153000E8008091E80080FFFCCFF701818580936F
:10154000F1008091E8008E778093E800AFDA24CF35
:101550008091FF01813209F01FCF8091E800877FE1
:101560008093E800A3DA809101029091020236E0B4
:10157000969587953A95E1F78C7F9370F70184876C
:1015800095870ACF8091FF01813A09F005CF8091BC
:10159000E800877F8093E8008091E80080FFFCCF1F
:1015A000F701848595859695879596958795C7CFFC
:1015B000CF93DF93FC01DC011A9686E0ED011992CE
:1015C0008A95E9F781E0818784EF91E084879587A8
:1015D00083E0848361E0CF010196DF91CF911CCA43
:1015E000AF92BF92CF92DF92EF92FF920F931F9331
:1015F000CF93DF93CDB7DEB728970FB6F894DEBF51
:101600000FBECDBF7C012DB73EB72E833F838EB377
:10161000843009F08DC08091E4009091E500F701DD
:10162000228533852817390709F482C081818F709C
:101630008093E9008091E80085FF7AC02DB73EB71E
:101640002C833D838085482F50E0EDB7FEB7E81B23
:10165000F1090FB6F894FEBF0FBEEDBF2DB73EB730
:101660002F5F3F4F69011B8219821A8260E070E090
:10167000C901AED08E010F5F1F4F960140E0BE0141
:101680006D5F7F4FC7010E9435028887F70184850F
:101690009585892B29F011E086859785892B09F09E
:1016A00010E0F701A680B78000E0A114B10479F042
:1016B00049815A81B501C60175D001E0892B09F431
:1016C00000E0F701408550E0B601C50178D089817E
:1016D0009A81892BF9F0F885F11104C0011102C03B
:1016E0001115C1F0F70184859585868797878181DB
:1016F0008F708093E9008B8181118093F100698163
:101700007A8140E050E0C60120D88091E8008E77D1
:101710008093E8008091E4009091E500F7018287D2
:1017200093872C813D810FB6F8943EBF0FBE2DBF2D
:101730008E819F810FB6F8949EBF0FBE8DBF2896F5
:101740000FB6F894DEBF0FBECDBFDF91CF911F91D2
:101750000F91FF90EF90DF90CF90BF90AF900895E2
:10176000A1E21A2EAA1BBB1BFD010DC0AA1FBB1FA5
:10177000EE1FFF1FA217B307E407F50720F0A21B17
:10178000B30BE40BF50B661F771F881F991F1A9484
:1017900069F760957095809590959B01AC01BD01AE
:1017A000CF010895FB01DC0104C08D9101908019E7
:1017B00021F441505040C8F7881B990B0895FB0154
:1017C000DC0102C001900D9241505040D8F70895BD
:1017D000DC0101C06D9341505040E0F70895F8944A
:0217E000FFCF39
:1017E2000284080000015A01080000000000000005
:1017F20000821000000103100000018108000001B6
:0C180200000000000000000000000000DA
:00000001FF
